{
  "address": "0xCf7Ed3AccA5a467e9e704C703E8D87F634fB0Fc9",
  "abi": [
    {
      "inputs": [
        {
          "internalType": "address",
          "name": "vrfCoordinatorV2",
          "type": "address"
        },
        {
          "internalType": "uint256",
          "name": "entrancefee",
          "type": "uint256"
        },
        {
          "internalType": "bytes32",
          "name": "gasLane",
          "type": "bytes32"
        },
        {
          "internalType": "uint64",
          "name": "subscriptionId",
          "type": "uint64"
        },
        {
          "internalType": "uint32",
          "name": "callbackGasLimit",
          "type": "uint32"
        },
        {
          "internalType": "uint256",
          "name": "interval",
          "type": "uint256"
        }
      ],
      "stateMutability": "nonpayable",
      "type": "constructor"
    },
    {
      "inputs": [],
      "name": "Lottery__NotEnoughEthEntered",
      "type": "error"
    },
    {
      "inputs": [],
      "name": "Lottery__NotOpen",
      "type": "error"
    },
    {
      "inputs": [],
      "name": "Lottery__TransferFailed",
      "type": "error"
    },
    {
      "inputs": [
        {
          "internalType": "uint256",
          "name": "currentBalance",
          "type": "uint256"
        },
        {
          "internalType": "uint256",
          "name": "numPlayers",
          "type": "uint256"
        },
        {
          "internalType": "uint256",
          "name": "lotteryState",
          "type": "uint256"
        }
      ],
      "name": "Lottery__UpKeepNotNeeded",
      "type": "error"
    },
    {
      "inputs": [
        {
          "internalType": "address",
          "name": "have",
          "type": "address"
        },
        {
          "internalType": "address",
          "name": "want",
          "type": "address"
        }
      ],
      "name": "OnlyCoordinatorCanFulfill",
      "type": "error"
    },
    {
      "anonymous": false,
      "inputs": [
        {
          "indexed": true,
          "internalType": "address",
          "name": "player",
          "type": "address"
        }
      ],
      "name": "LotteryEnter",
      "type": "event"
    },
    {
      "anonymous": false,
      "inputs": [
        {
          "indexed": true,
          "internalType": "uint256",
          "name": "requestId",
          "type": "uint256"
        }
      ],
      "name": "RequestedLotteryWinner",
      "type": "event"
    },
    {
      "anonymous": false,
      "inputs": [
        {
          "indexed": true,
          "internalType": "address",
          "name": "winner",
          "type": "address"
        }
      ],
      "name": "WinnerPicked",
      "type": "event"
    },
    {
      "inputs": [
        {
          "internalType": "bytes",
          "name": "",
          "type": "bytes"
        }
      ],
      "name": "checkUpkeep",
      "outputs": [
        {
          "internalType": "bool",
          "name": "upkeepNeeded",
          "type": "bool"
        },
        {
          "internalType": "bytes",
          "name": "",
          "type": "bytes"
        }
      ],
      "stateMutability": "view",
      "type": "function"
    },
    {
      "inputs": [],
      "name": "enterLottery",
      "outputs": [],
      "stateMutability": "payable",
      "type": "function"
    },
    {
      "inputs": [],
      "name": "getEntranceFee",
      "outputs": [
        {
          "internalType": "uint256",
          "name": "",
          "type": "uint256"
        }
      ],
      "stateMutability": "view",
      "type": "function"
    },
    {
      "inputs": [],
      "name": "getLatestTimeStamp",
      "outputs": [
        {
          "internalType": "uint256",
          "name": "",
          "type": "uint256"
        }
      ],
      "stateMutability": "view",
      "type": "function"
    },
    {
      "inputs": [],
      "name": "getLotteryState",
      "outputs": [
        {
          "internalType": "uint256",
          "name": "",
          "type": "uint256"
        }
      ],
      "stateMutability": "view",
      "type": "function"
    },
    {
      "inputs": [],
      "name": "getNumWords",
      "outputs": [
        {
          "internalType": "uint256",
          "name": "",
          "type": "uint256"
        }
      ],
      "stateMutability": "pure",
      "type": "function"
    },
    {
      "inputs": [],
      "name": "getNumberOfPlayers",
      "outputs": [
        {
          "internalType": "uint256",
          "name": "",
          "type": "uint256"
        }
      ],
      "stateMutability": "view",
      "type": "function"
    },
    {
      "inputs": [
        {
          "internalType": "uint256",
          "name": "index",
          "type": "uint256"
        }
      ],
      "name": "getPlayer",
      "outputs": [
        {
          "internalType": "address",
          "name": "",
          "type": "address"
        }
      ],
      "stateMutability": "view",
      "type": "function"
    },
    {
      "inputs": [],
      "name": "getRecentWinner",
      "outputs": [
        {
          "internalType": "address",
          "name": "",
          "type": "address"
        }
      ],
      "stateMutability": "view",
      "type": "function"
    },
    {
      "inputs": [],
      "name": "getRequestConfirmations",
      "outputs": [
        {
          "internalType": "uint256",
          "name": "",
          "type": "uint256"
        }
      ],
      "stateMutability": "pure",
      "type": "function"
    },
    {
      "inputs": [
        {
          "internalType": "bytes",
          "name": "",
          "type": "bytes"
        }
      ],
      "name": "performUpkeep",
      "outputs": [],
      "stateMutability": "nonpayable",
      "type": "function"
    },
    {
      "inputs": [
        {
          "internalType": "uint256",
          "name": "requestId",
          "type": "uint256"
        },
        {
          "internalType": "uint256[]",
          "name": "randomWords",
          "type": "uint256[]"
        }
      ],
      "name": "rawFulfillRandomWords",
      "outputs": [],
      "stateMutability": "nonpayable",
      "type": "function"
    }
  ],
  "transactionHash": "0x3adc274c73292e4ffc0175d6933880bc9e31db1772df9c6e4d80796724145e32",
  "args": [
    "0x5FbDB2315678afecb367f032d93F642f64180aa3",
    "100000000000000000",
    "0x474e34a077df58807dbe9c96d3c009b23b3c6d0cce433e59bbf5b34f823bc56c",
    "1",
    "500000",
    "30"
  ],
  "numDeployments": 1,
  "solcInputHash": "ba13ee6b3926314e1b3f19a27cad2c7d",
  "bytecode": "0x6101606040523480156200001257600080fd5b50604051620017b3380380620017b38339818101604052810190620000389190620001ad565b858073ffffffffffffffffffffffffffffffffffffffff1660808173ffffffffffffffffffffffffffffffffffffffff1660601b81525050508460a081815250508573ffffffffffffffffffffffffffffffffffffffff1660c08173ffffffffffffffffffffffffffffffffffffffff1660601b815250508360e081815250508267ffffffffffffffff166101008167ffffffffffffffff1660c01b815250508163ffffffff166101208163ffffffff1660e01b815250506000600160146101000a81548160ff02191690836001811115620001195762000118620002b5565b5b0217905550426002819055508061014081815250505050505050506200036b565b6000815190506200014b81620002e9565b92915050565b600081519050620001628162000303565b92915050565b60008151905062000179816200031d565b92915050565b600081519050620001908162000337565b92915050565b600081519050620001a78162000351565b92915050565b60008060008060008060c08789031215620001cd57620001cc620002e4565b5b6000620001dd89828a016200013a565b9650506020620001f089828a0162000168565b95505060406200020389828a0162000151565b94505060606200021689828a0162000196565b93505060806200022989828a016200017f565b92505060a06200023c89828a0162000168565b9150509295509295509295565b6000620002568262000267565b9050919050565b6000819050919050565b600073ffffffffffffffffffffffffffffffffffffffff82169050919050565b6000819050919050565b600063ffffffff82169050919050565b600067ffffffffffffffff82169050919050565b7f4e487b7100000000000000000000000000000000000000000000000000000000600052602160045260246000fd5b600080fd5b620002f48162000249565b81146200030057600080fd5b50565b6200030e816200025d565b81146200031a57600080fd5b50565b620003288162000287565b81146200033457600080fd5b50565b620003428162000291565b81146200034e57600080fd5b50565b6200035c81620002a1565b81146200036857600080fd5b50565b60805160601c60a05160c05160601c60e0516101005160c01c6101205160e01c610140516113d3620003e06000396000610652015260006104d9015260006104b601526000610495015260006104590152600081816102b401526106f90152600081816102da015261032e01526113d36000f3fe6080604052600436106100a75760003560e01c80635f1b0fd8116100645780635f1b0fd8146101aa5780636b68c03c146101d55780636e04ff0d14610200578063c1af57851461023e578063e55ae4e814610248578063fd6673f514610285576100a7565b806309bc33a7146100ac5780631fe543e3146100d7578063320229eb146101005780634585e33b1461012b578063473f1ddc1461015457806353a2c19a1461017f575b600080fd5b3480156100b857600080fd5b506100c16102b0565b6040516100ce9190611012565b60405180910390f35b3480156100e357600080fd5b506100fe60048036038101906100f99190610e15565b6102d8565b005b34801561010c57600080fd5b50610115610398565b6040516101229190611012565b60405180910390f35b34801561013757600080fd5b50610152600480360381019061014d9190610d25565b6103a2565b005b34801561016057600080fd5b506101696105a1565b6040516101769190610f4b565b60405180910390f35b34801561018b57600080fd5b506101946105cb565b6040516101a19190611012565b60405180910390f35b3480156101b657600080fd5b506101bf6105da565b6040516101cc9190611012565b60405180910390f35b3480156101e157600080fd5b506101ea6105e7565b6040516101f79190611012565b60405180910390f35b34801561020c57600080fd5b5061022760048036038101906102229190610d72565b610610565b604051610235929190610f8f565b60405180910390f35b6102466106f7565b005b34801561025457600080fd5b5061026f600480360381019061026a9190610dbb565b61086c565b60405161027c9190610f4b565b60405180910390f35b34801561029157600080fd5b5061029a6108b3565b6040516102a79190611012565b60405180910390f35b60007f0000000000000000000000000000000000000000000000000000000000000000905090565b7f000000000000000000000000000000000000000000000000000000000000000073ffffffffffffffffffffffffffffffffffffffff163373ffffffffffffffffffffffffffffffffffffffff161461038a57337f00000000000000000000000000000000000000000000000000000000000000006040517f1cf993f4000000000000000000000000000000000000000000000000000000008152600401610381929190610f66565b60405180910390fd5b61039482826108bf565b5050565b6000600254905090565b60018060146101000a81548160ff021916908360018111156103c7576103c66112c7565b5b021790555060006103e660405180602001604052806000815250610610565b509050806104555747600080549050600160149054906101000a900460ff166001811115610417576104166112c7565b5b6040517fa9e3cfef00000000000000000000000000000000000000000000000000000000815260040161044c9392919061102d565b60405180910390fd5b60007f000000000000000000000000000000000000000000000000000000000000000073ffffffffffffffffffffffffffffffffffffffff16635d3b1d307f00000000000000000000000000000000000000000000000000000000000000007f000000000000000000000000000000000000000000000000000000000000000060037f000000000000000000000000000000000000000000000000000000000000000060016040518663ffffffff1660e01b815260040161051a959493929190610fbf565b602060405180830381600087803b15801561053457600080fd5b505af1158015610548573d6000803e3d6000fd5b505050506040513d601f19601f8201168201806040525081019061056c9190610de8565b9050807febf56642252004c18a776f30d528e7a0ce8c5db14b6596fb6550f630c8a24c6c60405160405180910390a250505050565b6000600160009054906101000a900473ffffffffffffffffffffffffffffffffffffffff16905090565b6000600163ffffffff16905090565b6000600361ffff16905090565b6000600160149054906101000a900460ff16600181111561060b5761060a6112c7565b5b905090565b600060606000806001811115610629576106286112c7565b5b600160149054906101000a900460ff16600181111561064b5761064a6112c7565b5b14905060007f00000000000000000000000000000000000000000000000000000000000000006002544261067f919061110d565b1190506000806000805490501190506000804711905083801561069f5750825b80156106a85750815b80156106b15750805b9550856040518060400160405280600381526020017f30783000000000000000000000000000000000000000000000000000000000008152509550955050505050915091565b7f0000000000000000000000000000000000000000000000000000000000000000341015610751576040517f3e8f808800000000000000000000000000000000000000000000000000000000815260040160405180910390fd5b60006001811115610765576107646112c7565b5b600160149054906101000a900460ff166001811115610787576107866112c7565b5b14156107f5576000339080600181540180825580915050600190039060005260206000200160009091909190916101000a81548173ffffffffffffffffffffffffffffffffffffffff021916908373ffffffffffffffffffffffffffffffffffffffff160217905550610827565b6040517fe76be6fc00000000000000000000000000000000000000000000000000000000815260040160405180910390fd5b3373ffffffffffffffffffffffffffffffffffffffff167f1d64fb5ba9f2548c5b98468d58f25b87b9e866afee0122e92d9fe722bf85076c60405160405180910390a2565b6000808281548110610881576108806112f6565b5b9060005260206000200160009054906101000a900473ffffffffffffffffffffffffffffffffffffffff169050919050565b60008080549050905090565b60008080549050826000815181106108da576108d96112f6565b5b60200260200101516108ec9190611238565b90506000808281548110610903576109026112f6565b5b9060005260206000200160009054906101000a900473ffffffffffffffffffffffffffffffffffffffff16905080600160006101000a81548173ffffffffffffffffffffffffffffffffffffffff021916908373ffffffffffffffffffffffffffffffffffffffff1602179055506000600160146101000a81548160ff02191690836001811115610997576109966112c7565b5b0217905550600067ffffffffffffffff8111156109b7576109b6611325565b5b6040519080825280602002602001820160405280156109e55781602001602082028036833780820191505090505b50600090805190602001906109fb929190610af0565b504260028190555060008173ffffffffffffffffffffffffffffffffffffffff1647604051610a2990610f36565b60006040518083038185875af1925050503d8060008114610a66576040519150601f19603f3d011682016040523d82523d6000602084013e610a6b565b606091505b5050905080610aa6576040517f1c94012000000000000000000000000000000000000000000000000000000000815260040160405180910390fd5b8173ffffffffffffffffffffffffffffffffffffffff167f5b690ec4a06fe979403046eaeea5b3ce38524683c3001f662c8b5a829632f7df60405160405180910390a25050505050565b828054828255906000526020600020908101928215610b69579160200282015b82811115610b685782518260006101000a81548173ffffffffffffffffffffffffffffffffffffffff021916908373ffffffffffffffffffffffffffffffffffffffff16021790555091602001919060010190610b10565b5b509050610b769190610b7a565b5090565b5b80821115610b93576000816000905550600101610b7b565b5090565b6000610baa610ba584611089565b611064565b90508083825260208201905082856020860282011115610bcd57610bcc61135e565b5b60005b85811015610bfd5781610be38882610cfb565b845260208401935060208301925050600181019050610bd0565b5050509392505050565b6000610c1a610c15846110b5565b611064565b905082815260208101848484011115610c3657610c35611363565b5b610c418482856111c5565b509392505050565b600082601f830112610c5e57610c5d611359565b5b8135610c6e848260208601610b97565b91505092915050565b60008083601f840112610c8d57610c8c611359565b5b8235905067ffffffffffffffff811115610caa57610ca9611354565b5b602083019150836001820283011115610cc657610cc561135e565b5b9250929050565b600082601f830112610ce257610ce1611359565b5b8135610cf2848260208601610c07565b91505092915050565b600081359050610d0a81611386565b92915050565b600081519050610d1f81611386565b92915050565b60008060208385031215610d3c57610d3b61136d565b5b600083013567ffffffffffffffff811115610d5a57610d59611368565b5b610d6685828601610c77565b92509250509250929050565b600060208284031215610d8857610d8761136d565b5b600082013567ffffffffffffffff811115610da657610da5611368565b5b610db284828501610ccd565b91505092915050565b600060208284031215610dd157610dd061136d565b5b6000610ddf84828501610cfb565b91505092915050565b600060208284031215610dfe57610dfd61136d565b5b6000610e0c84828501610d10565b91505092915050565b60008060408385031215610e2c57610e2b61136d565b5b6000610e3a85828601610cfb565b925050602083013567ffffffffffffffff811115610e5b57610e5a611368565b5b610e6785828601610c49565b9150509250929050565b610e7a81611141565b82525050565b610e8981611153565b82525050565b610e988161115f565b82525050565b6000610ea9826110e6565b610eb381856110f1565b9350610ec38185602086016111d4565b610ecc81611372565b840191505092915050565b6000610ee4600083611102565b9150610eef82611383565b600082019050919050565b610f0381611169565b82525050565b610f1281611197565b82525050565b610f21816111a1565b82525050565b610f30816111b1565b82525050565b6000610f4182610ed7565b9150819050919050565b6000602082019050610f606000830184610e71565b92915050565b6000604082019050610f7b6000830185610e71565b610f886020830184610e71565b9392505050565b6000604082019050610fa46000830185610e80565b8181036020830152610fb68184610e9e565b90509392505050565b600060a082019050610fd46000830188610e8f565b610fe16020830187610f27565b610fee6040830186610efa565b610ffb6060830185610f18565b6110086080830184610f18565b9695505050505050565b60006020820190506110276000830184610f09565b92915050565b60006060820190506110426000830186610f09565b61104f6020830185610f09565b61105c6040830184610f09565b949350505050565b600061106e61107f565b905061107a8282611207565b919050565b6000604051905090565b600067ffffffffffffffff8211156110a4576110a3611325565b5b602082029050602081019050919050565b600067ffffffffffffffff8211156110d0576110cf611325565b5b6110d982611372565b9050602081019050919050565b600081519050919050565b600082825260208201905092915050565b600081905092915050565b600061111882611197565b915061112383611197565b92508282101561113657611135611269565b5b828203905092915050565b600061114c82611177565b9050919050565b60008115159050919050565b6000819050919050565b600061ffff82169050919050565b600073ffffffffffffffffffffffffffffffffffffffff82169050919050565b6000819050919050565b600063ffffffff82169050919050565b600067ffffffffffffffff82169050919050565b82818337600083830152505050565b60005b838110156111f25780820151818401526020810190506111d7565b83811115611201576000848401525b50505050565b61121082611372565b810181811067ffffffffffffffff8211171561122f5761122e611325565b5b80604052505050565b600061124382611197565b915061124e83611197565b92508261125e5761125d611298565b5b828206905092915050565b7f4e487b7100000000000000000000000000000000000000000000000000000000600052601160045260246000fd5b7f4e487b7100000000000000000000000000000000000000000000000000000000600052601260045260246000fd5b7f4e487b7100000000000000000000000000000000000000000000000000000000600052602160045260246000fd5b7f4e487b7100000000000000000000000000000000000000000000000000000000600052603260045260246000fd5b7f4e487b7100000000000000000000000000000000000000000000000000000000600052604160045260246000fd5b600080fd5b600080fd5b600080fd5b600080fd5b600080fd5b600080fd5b6000601f19601f8301169050919050565b50565b61138f81611197565b811461139a57600080fd5b5056fea2646970667358221220f221d59ea55f0052883b7557e30c8fd17643b21808fe23c5af49968b783f27c264736f6c63430008070033",
  "devdoc": {
    "author": "Govind P Nair",
    "kind": "dev",
    "methods": {
      "checkUpkeep(bytes)": {
        "details": "they look for the upKeedNeeded to return true. the following should be true in order to return true. 1.Out time interval should have passed 2.the lottery should have atleast 1 player, and have some eth. 3.our subcription is funded with link. 4. the lottery should be in \"open\" state. it will be closed when it is waiting for the random number to return or in the calculating state."
      }
    },
    "title": "A sample lottery contract",
    "version": 1
  },
  "userdoc": {
    "kind": "user",
    "methods": {},
    "notice": "this contract is for creating an untamperable decentralised smart contract",
    "version": 1
  },
  "storageLayout": {
    "storage": [
      {
        "astId": 1162,
        "contract": "contracts/lottery.sol:Lottery",
        "label": "s_players",
        "offset": 0,
        "slot": "0",
        "type": "t_array(t_address_payable)dyn_storage"
      },
      {
        "astId": 1179,
        "contract": "contracts/lottery.sol:Lottery",
        "label": "s_recentWinner",
        "offset": 0,
        "slot": "1",
        "type": "t_address"
      },
      {
        "astId": 1182,
        "contract": "contracts/lottery.sol:Lottery",
        "label": "s_LotteryState",
        "offset": 20,
        "slot": "1",
        "type": "t_enum(LotteryState)1157"
      },
      {
        "astId": 1184,
        "contract": "contracts/lottery.sol:Lottery",
        "label": "s_lastTimeStamp",
        "offset": 0,
        "slot": "2",
        "type": "t_uint256"
      }
    ],
    "types": {
      "t_address": {
        "encoding": "inplace",
        "label": "address",
        "numberOfBytes": "20"
      },
      "t_address_payable": {
        "encoding": "inplace",
        "label": "address payable",
        "numberOfBytes": "20"
      },
      "t_array(t_address_payable)dyn_storage": {
        "base": "t_address_payable",
        "encoding": "dynamic_array",
        "label": "address payable[]",
        "numberOfBytes": "32"
      },
      "t_enum(LotteryState)1157": {
        "encoding": "inplace",
        "label": "enum Lottery.LotteryState",
        "numberOfBytes": "1"
      },
      "t_uint256": {
        "encoding": "inplace",
        "label": "uint256",
        "numberOfBytes": "32"
      }
    }
  }
}