{
  "_format": "hh-sol-artifact-1",
  "contractName": "Lottery",
  "sourceName": "contracts/lottery.sol",
  "abi": [
    {
      "inputs": [
        {
          "internalType": "address",
          "name": "vrfCoordinatorV2",
          "type": "address"
        },
        {
          "internalType": "uint256",
          "name": "entrancefee",
          "type": "uint256"
        },
        {
          "internalType": "bytes32",
          "name": "gasLane",
          "type": "bytes32"
        },
        {
          "internalType": "uint64",
          "name": "subscriptionId",
          "type": "uint64"
        },
        {
          "internalType": "uint32",
          "name": "callbackGasLimit",
          "type": "uint32"
        },
        {
          "internalType": "uint256",
          "name": "interval",
          "type": "uint256"
        }
      ],
      "stateMutability": "nonpayable",
      "type": "constructor"
    },
    {
      "inputs": [],
      "name": "Lottery__NotEnoughEthEntered",
      "type": "error"
    },
    {
      "inputs": [],
      "name": "Lottery__NotOpen",
      "type": "error"
    },
    {
      "inputs": [],
      "name": "Lottery__TransferFailed",
      "type": "error"
    },
    {
      "inputs": [
        {
          "internalType": "uint256",
          "name": "currentBalance",
          "type": "uint256"
        },
        {
          "internalType": "uint256",
          "name": "numPlayers",
          "type": "uint256"
        },
        {
          "internalType": "uint256",
          "name": "lotteryState",
          "type": "uint256"
        }
      ],
      "name": "Lottery__UpKeepNotNeeded",
      "type": "error"
    },
    {
      "inputs": [
        {
          "internalType": "address",
          "name": "have",
          "type": "address"
        },
        {
          "internalType": "address",
          "name": "want",
          "type": "address"
        }
      ],
      "name": "OnlyCoordinatorCanFulfill",
      "type": "error"
    },
    {
      "anonymous": false,
      "inputs": [
        {
          "indexed": true,
          "internalType": "address",
          "name": "player",
          "type": "address"
        }
      ],
      "name": "LotteryEnter",
      "type": "event"
    },
    {
      "anonymous": false,
      "inputs": [
        {
          "indexed": true,
          "internalType": "uint256",
          "name": "requestId",
          "type": "uint256"
        }
      ],
      "name": "RequestedLotteryWinner",
      "type": "event"
    },
    {
      "anonymous": false,
      "inputs": [
        {
          "indexed": true,
          "internalType": "address",
          "name": "winner",
          "type": "address"
        }
      ],
      "name": "WinnerPicked",
      "type": "event"
    },
    {
      "inputs": [
        {
          "internalType": "bytes",
          "name": "",
          "type": "bytes"
        }
      ],
      "name": "checkUpkeep",
      "outputs": [
        {
          "internalType": "bool",
          "name": "upkeepNeeded",
          "type": "bool"
        },
        {
          "internalType": "bytes",
          "name": "",
          "type": "bytes"
        }
      ],
      "stateMutability": "view",
      "type": "function"
    },
    {
      "inputs": [],
      "name": "enterLottery",
      "outputs": [],
      "stateMutability": "payable",
      "type": "function"
    },
    {
      "inputs": [],
      "name": "getEntranceFee",
      "outputs": [
        {
          "internalType": "uint256",
          "name": "",
          "type": "uint256"
        }
      ],
      "stateMutability": "view",
      "type": "function"
    },
    {
      "inputs": [],
      "name": "getInterval",
      "outputs": [
        {
          "internalType": "uint256",
          "name": "",
          "type": "uint256"
        }
      ],
      "stateMutability": "view",
      "type": "function"
    },
    {
      "inputs": [],
      "name": "getLatestTimeStamp",
      "outputs": [
        {
          "internalType": "uint256",
          "name": "",
          "type": "uint256"
        }
      ],
      "stateMutability": "view",
      "type": "function"
    },
    {
      "inputs": [],
      "name": "getLotteryState",
      "outputs": [
        {
          "internalType": "uint256",
          "name": "",
          "type": "uint256"
        }
      ],
      "stateMutability": "view",
      "type": "function"
    },
    {
      "inputs": [],
      "name": "getNumWords",
      "outputs": [
        {
          "internalType": "uint256",
          "name": "",
          "type": "uint256"
        }
      ],
      "stateMutability": "pure",
      "type": "function"
    },
    {
      "inputs": [],
      "name": "getNumberOfPlayers",
      "outputs": [
        {
          "internalType": "uint256",
          "name": "",
          "type": "uint256"
        }
      ],
      "stateMutability": "view",
      "type": "function"
    },
    {
      "inputs": [
        {
          "internalType": "uint256",
          "name": "index",
          "type": "uint256"
        }
      ],
      "name": "getPlayer",
      "outputs": [
        {
          "internalType": "address",
          "name": "",
          "type": "address"
        }
      ],
      "stateMutability": "view",
      "type": "function"
    },
    {
      "inputs": [],
      "name": "getRecentWinner",
      "outputs": [
        {
          "internalType": "address",
          "name": "",
          "type": "address"
        }
      ],
      "stateMutability": "view",
      "type": "function"
    },
    {
      "inputs": [],
      "name": "getRequestConfirmations",
      "outputs": [
        {
          "internalType": "uint256",
          "name": "",
          "type": "uint256"
        }
      ],
      "stateMutability": "pure",
      "type": "function"
    },
    {
      "inputs": [
        {
          "internalType": "bytes",
          "name": "",
          "type": "bytes"
        }
      ],
      "name": "performUpkeep",
      "outputs": [],
      "stateMutability": "nonpayable",
      "type": "function"
    },
    {
      "inputs": [
        {
          "internalType": "uint256",
          "name": "requestId",
          "type": "uint256"
        },
        {
          "internalType": "uint256[]",
          "name": "randomWords",
          "type": "uint256[]"
        }
      ],
      "name": "rawFulfillRandomWords",
      "outputs": [],
      "stateMutability": "nonpayable",
      "type": "function"
    }
  ],
  "bytecode": "0x6101606040523480156200001257600080fd5b5060405162001828380380620018288339818101604052810190620000389190620001ad565b858073ffffffffffffffffffffffffffffffffffffffff1660808173ffffffffffffffffffffffffffffffffffffffff1660601b81525050508460a081815250508573ffffffffffffffffffffffffffffffffffffffff1660c08173ffffffffffffffffffffffffffffffffffffffff1660601b815250508360e081815250508267ffffffffffffffff166101008167ffffffffffffffff1660c01b815250508163ffffffff166101208163ffffffff1660e01b815250506000600160146101000a81548160ff02191690836001811115620001195762000118620002b5565b5b0217905550426002819055508061014081815250505050505050506200036b565b6000815190506200014b81620002e9565b92915050565b600081519050620001628162000303565b92915050565b60008151905062000179816200031d565b92915050565b600081519050620001908162000337565b92915050565b600081519050620001a78162000351565b92915050565b60008060008060008060c08789031215620001cd57620001cc620002e4565b5b6000620001dd89828a016200013a565b9650506020620001f089828a0162000168565b95505060406200020389828a0162000151565b94505060606200021689828a0162000196565b93505060806200022989828a016200017f565b92505060a06200023c89828a0162000168565b9150509295509295509295565b6000620002568262000267565b9050919050565b6000819050919050565b600073ffffffffffffffffffffffffffffffffffffffff82169050919050565b6000819050919050565b600063ffffffff82169050919050565b600067ffffffffffffffff82169050919050565b7f4e487b7100000000000000000000000000000000000000000000000000000000600052602160045260246000fd5b600080fd5b620002f48162000249565b81146200030057600080fd5b50565b6200030e816200025d565b81146200031a57600080fd5b50565b620003288162000287565b81146200033457600080fd5b50565b620003428162000291565b81146200034e57600080fd5b50565b6200035c81620002a1565b81146200036857600080fd5b50565b60805160601c60a05160c05160601c60e0516101005160c01c6101205160e01c61014051611441620003e76000396000818161069801526107410152600061051f015260006104fc015260006104db0152600061049f0152600081816102fa0152610767015260008181610320015261037401526114416000f3fe6080604052600436106100c25760003560e01c80635f1b0fd81161007f57806391ad27b41161005957806391ad27b414610259578063c1af578514610284578063e55ae4e81461028e578063fd6673f5146102cb576100c2565b80635f1b0fd8146101c55780636b68c03c146101f05780636e04ff0d1461021b576100c2565b806309bc33a7146100c75780631fe543e3146100f2578063320229eb1461011b5780634585e33b14610146578063473f1ddc1461016f57806353a2c19a1461019a575b600080fd5b3480156100d357600080fd5b506100dc6102f6565b6040516100e99190611080565b60405180910390f35b3480156100fe57600080fd5b5061011960048036038101906101149190610e83565b61031e565b005b34801561012757600080fd5b506101306103de565b60405161013d9190611080565b60405180910390f35b34801561015257600080fd5b5061016d60048036038101906101689190610d93565b6103e8565b005b34801561017b57600080fd5b506101846105e7565b6040516101919190610fb9565b60405180910390f35b3480156101a657600080fd5b506101af610611565b6040516101bc9190611080565b60405180910390f35b3480156101d157600080fd5b506101da610620565b6040516101e79190611080565b60405180910390f35b3480156101fc57600080fd5b5061020561062d565b6040516102129190611080565b60405180910390f35b34801561022757600080fd5b50610242600480360381019061023d9190610de0565b610656565b604051610250929190610ffd565b60405180910390f35b34801561026557600080fd5b5061026e61073d565b60405161027b9190611080565b60405180910390f35b61028c610765565b005b34801561029a57600080fd5b506102b560048036038101906102b09190610e29565b6108da565b6040516102c29190610fb9565b60405180910390f35b3480156102d757600080fd5b506102e0610921565b6040516102ed9190611080565b60405180910390f35b60007f0000000000000000000000000000000000000000000000000000000000000000905090565b7f000000000000000000000000000000000000000000000000000000000000000073ffffffffffffffffffffffffffffffffffffffff163373ffffffffffffffffffffffffffffffffffffffff16146103d057337f00000000000000000000000000000000000000000000000000000000000000006040517f1cf993f40000000000000000000000000000000000000000000000000000000081526004016103c7929190610fd4565b60405180910390fd5b6103da828261092d565b5050565b6000600254905090565b600061040260405180602001604052806000815250610656565b509050806104715747600080549050600160149054906101000a900460ff16600181111561043357610432611335565b5b6040517fa9e3cfef0000000000000000000000000000000000000000000000000000000081526004016104689392919061109b565b60405180910390fd5b60018060146101000a81548160ff0219169083600181111561049657610495611335565b5b021790555060007f000000000000000000000000000000000000000000000000000000000000000073ffffffffffffffffffffffffffffffffffffffff16635d3b1d307f00000000000000000000000000000000000000000000000000000000000000007f000000000000000000000000000000000000000000000000000000000000000060037f000000000000000000000000000000000000000000000000000000000000000060016040518663ffffffff1660e01b815260040161056095949392919061102d565b602060405180830381600087803b15801561057a57600080fd5b505af115801561058e573d6000803e3d6000fd5b505050506040513d601f19601f820116820180604052508101906105b29190610e56565b9050807febf56642252004c18a776f30d528e7a0ce8c5db14b6596fb6550f630c8a24c6c60405160405180910390a250505050565b6000600160009054906101000a900473ffffffffffffffffffffffffffffffffffffffff16905090565b6000600163ffffffff16905090565b6000600361ffff16905090565b6000600160149054906101000a900460ff16600181111561065157610650611335565b5b905090565b60006060600080600181111561066f5761066e611335565b5b600160149054906101000a900460ff16600181111561069157610690611335565b5b14905060007f0000000000000000000000000000000000000000000000000000000000000000600254426106c5919061117b565b119050600080600080549050119050600080471190508380156106e55750825b80156106ee5750815b80156106f75750805b9550856040518060400160405280600381526020017f30783000000000000000000000000000000000000000000000000000000000008152509550955050505050915091565b60007f0000000000000000000000000000000000000000000000000000000000000000905090565b7f00000000000000000000000000000000000000000000000000000000000000003410156107bf576040517f3e8f808800000000000000000000000000000000000000000000000000000000815260040160405180910390fd5b600060018111156107d3576107d2611335565b5b600160149054906101000a900460ff1660018111156107f5576107f4611335565b5b1415610863576000339080600181540180825580915050600190039060005260206000200160009091909190916101000a81548173ffffffffffffffffffffffffffffffffffffffff021916908373ffffffffffffffffffffffffffffffffffffffff160217905550610895565b6040517fe76be6fc00000000000000000000000000000000000000000000000000000000815260040160405180910390fd5b3373ffffffffffffffffffffffffffffffffffffffff167f1d64fb5ba9f2548c5b98468d58f25b87b9e866afee0122e92d9fe722bf85076c60405160405180910390a2565b60008082815481106108ef576108ee611364565b5b9060005260206000200160009054906101000a900473ffffffffffffffffffffffffffffffffffffffff169050919050565b60008080549050905090565b600080805490508260008151811061094857610947611364565b5b602002602001015161095a91906112a6565b9050600080828154811061097157610970611364565b5b9060005260206000200160009054906101000a900473ffffffffffffffffffffffffffffffffffffffff16905080600160006101000a81548173ffffffffffffffffffffffffffffffffffffffff021916908373ffffffffffffffffffffffffffffffffffffffff1602179055506000600160146101000a81548160ff02191690836001811115610a0557610a04611335565b5b0217905550600067ffffffffffffffff811115610a2557610a24611393565b5b604051908082528060200260200182016040528015610a535781602001602082028036833780820191505090505b5060009080519060200190610a69929190610b5e565b504260028190555060008173ffffffffffffffffffffffffffffffffffffffff1647604051610a9790610fa4565b60006040518083038185875af1925050503d8060008114610ad4576040519150601f19603f3d011682016040523d82523d6000602084013e610ad9565b606091505b5050905080610b14576040517f1c94012000000000000000000000000000000000000000000000000000000000815260040160405180910390fd5b8173ffffffffffffffffffffffffffffffffffffffff167f5b690ec4a06fe979403046eaeea5b3ce38524683c3001f662c8b5a829632f7df60405160405180910390a25050505050565b828054828255906000526020600020908101928215610bd7579160200282015b82811115610bd65782518260006101000a81548173ffffffffffffffffffffffffffffffffffffffff021916908373ffffffffffffffffffffffffffffffffffffffff16021790555091602001919060010190610b7e565b5b509050610be49190610be8565b5090565b5b80821115610c01576000816000905550600101610be9565b5090565b6000610c18610c13846110f7565b6110d2565b90508083825260208201905082856020860282011115610c3b57610c3a6113cc565b5b60005b85811015610c6b5781610c518882610d69565b845260208401935060208301925050600181019050610c3e565b5050509392505050565b6000610c88610c8384611123565b6110d2565b905082815260208101848484011115610ca457610ca36113d1565b5b610caf848285611233565b509392505050565b600082601f830112610ccc57610ccb6113c7565b5b8135610cdc848260208601610c05565b91505092915050565b60008083601f840112610cfb57610cfa6113c7565b5b8235905067ffffffffffffffff811115610d1857610d176113c2565b5b602083019150836001820283011115610d3457610d336113cc565b5b9250929050565b600082601f830112610d5057610d4f6113c7565b5b8135610d60848260208601610c75565b91505092915050565b600081359050610d78816113f4565b92915050565b600081519050610d8d816113f4565b92915050565b60008060208385031215610daa57610da96113db565b5b600083013567ffffffffffffffff811115610dc857610dc76113d6565b5b610dd485828601610ce5565b92509250509250929050565b600060208284031215610df657610df56113db565b5b600082013567ffffffffffffffff811115610e1457610e136113d6565b5b610e2084828501610d3b565b91505092915050565b600060208284031215610e3f57610e3e6113db565b5b6000610e4d84828501610d69565b91505092915050565b600060208284031215610e6c57610e6b6113db565b5b6000610e7a84828501610d7e565b91505092915050565b60008060408385031215610e9a57610e996113db565b5b6000610ea885828601610d69565b925050602083013567ffffffffffffffff811115610ec957610ec86113d6565b5b610ed585828601610cb7565b9150509250929050565b610ee8816111af565b82525050565b610ef7816111c1565b82525050565b610f06816111cd565b82525050565b6000610f1782611154565b610f21818561115f565b9350610f31818560208601611242565b610f3a816113e0565b840191505092915050565b6000610f52600083611170565b9150610f5d826113f1565b600082019050919050565b610f71816111d7565b82525050565b610f8081611205565b82525050565b610f8f8161120f565b82525050565b610f9e8161121f565b82525050565b6000610faf82610f45565b9150819050919050565b6000602082019050610fce6000830184610edf565b92915050565b6000604082019050610fe96000830185610edf565b610ff66020830184610edf565b9392505050565b60006040820190506110126000830185610eee565b81810360208301526110248184610f0c565b90509392505050565b600060a0820190506110426000830188610efd565b61104f6020830187610f95565b61105c6040830186610f68565b6110696060830185610f86565b6110766080830184610f86565b9695505050505050565b60006020820190506110956000830184610f77565b92915050565b60006060820190506110b06000830186610f77565b6110bd6020830185610f77565b6110ca6040830184610f77565b949350505050565b60006110dc6110ed565b90506110e88282611275565b919050565b6000604051905090565b600067ffffffffffffffff82111561111257611111611393565b5b602082029050602081019050919050565b600067ffffffffffffffff82111561113e5761113d611393565b5b611147826113e0565b9050602081019050919050565b600081519050919050565b600082825260208201905092915050565b600081905092915050565b600061118682611205565b915061119183611205565b9250828210156111a4576111a36112d7565b5b828203905092915050565b60006111ba826111e5565b9050919050565b60008115159050919050565b6000819050919050565b600061ffff82169050919050565b600073ffffffffffffffffffffffffffffffffffffffff82169050919050565b6000819050919050565b600063ffffffff82169050919050565b600067ffffffffffffffff82169050919050565b82818337600083830152505050565b60005b83811015611260578082015181840152602081019050611245565b8381111561126f576000848401525b50505050565b61127e826113e0565b810181811067ffffffffffffffff8211171561129d5761129c611393565b5b80604052505050565b60006112b182611205565b91506112bc83611205565b9250826112cc576112cb611306565b5b828206905092915050565b7f4e487b7100000000000000000000000000000000000000000000000000000000600052601160045260246000fd5b7f4e487b7100000000000000000000000000000000000000000000000000000000600052601260045260246000fd5b7f4e487b7100000000000000000000000000000000000000000000000000000000600052602160045260246000fd5b7f4e487b7100000000000000000000000000000000000000000000000000000000600052603260045260246000fd5b7f4e487b7100000000000000000000000000000000000000000000000000000000600052604160045260246000fd5b600080fd5b600080fd5b600080fd5b600080fd5b600080fd5b600080fd5b6000601f19601f8301169050919050565b50565b6113fd81611205565b811461140857600080fd5b5056fea2646970667358221220d63f50e4513066d33f2bddf744e358463d4d3b3df865def729034e4788258b1064736f6c63430008070033",
  "linkReferences": {},
  "deployedLinkReferences": {}
}